:060000000A128A110C280F
:10000800FE00030EF2000A08F3000A128A111528EE
:100018000A128A110F28F001F10183010A128A11CC
:100028004428831203138C1C1A281B282F280130FC
:10003800F0070318F10A0030F107203070064E303F
:1000480003197106031D29282A282E28F001F10119
:10005800013088068C1073088A00720E8300FE0E29
:100068007E0E090083120313880183160313880187
:100078000A128A114D200A128A110B178B170800D1
:100088000A128A1136200A128A1149280A128A117C
:100098000C28FA308316031392008C14831203136E
:0400A8001215080025
:08400000FF3FFF3FFF3FFF3FC0
:02400E00FB3F76
:00000001FF
