:060000000A128A110C280F
:10000800FE00030EF0000A08F1000A128A15802D7E
:100018000A128A110F280A128A11FF240A128A1159
:10002800C3000A128A11FE240A128A11FB00B701C2
:10003800B801B901BA01BB01BC01BD01BE01BF01D4
:10004800C001C101C201F901FA0183010A128A1132
:10005800182E83120313AE0031302A06031D3528EB
:1000680036283A28B701B801AE01B9010130BB07FB
:1000780006303B06031D412842284B28BB013A089D
:1000880003194728492801304A280030BA0060304F
:10009800F6008530F7008130F8000A128A11CF2463
:1000A8000A128A111230F6008630F700C130F800C3
:1000B8000A128A11CF240A128A112230F6008530DA
:1000C800F700D030F8000A128A11CF240A128A11D8
:1000D8002A30831203132E060319732874289F28C5
:1000E80023302E06031979287A289F282E0A031907
:1000F8007E287F289F280130B90705303902031868
:100108008628872861293808F3003708F2000A3062
:10011800F4000030F5000A128A15BE240A128A116A
:10012800831203132E087207B7000030031801303A
:100138007307B80061292A302E06031DA428A528B4
:10014800A928B701B801B901612923302E06031D7A
:10015800AE28AF28612900303802B53003193702BC
:10016800031CB728B828BC28B430B7000030B80042
:100178000A128A152B240A128A113C30831203139F
:10018800C00012156E30F6008530F7008230F80096
:100198000A128A11CF240A128A11AE30F60085306D
:1001A800F7009130F8000A128A11CF240A128A1136
:1001B8009E3083120313A80073300A128A154F2445
:1001C8000A128A112E299C30A8000A30A400003097
:1001D800A5000A30F2000030F3004008AB00AC0183
:1001E8002B08F4002C08F5000A128A1126270A1297
:1001F8008A11730883120313A7007208A6000A1253
:100208008A1176240A128A11831203132408303EB5
:100218000A128A154F240A128A119D308312031379
:10022800A8000A30A4000030A5004008AB00AC01CB
:100238002B08A6002C08A7000A128A1176240A1295
:100248008A11831203132408303E0A128A154F2498
:100258000A128A11831203134008031D3429352911
:10026800E7288714333083120313AD00BB30AC008A
:10027800DF30AB00AB0B3E29AC0B3E29AD0B3E2962
:10028800831203138710333083120313AD00BB307E
:10029800AC00DF30AB00AB0B4F29AC0B4F29AD0BDB
:1002A8004F298312031312110A128A152B240A12DA
:1002B8008A11303083120313C3003A0803196529E1
:1002C80066298329C730A80020300A128A154F24CE
:1002D8000A128A11C83083120313A80020300A12A8
:1002E8008A154F240A128A11C93083120313A800F1
:1002F80020300A128A154F240A128A11DC29C730C5
:10030800A8006430F2000030F3003808F500370820
:10031800F4000A128A15BB250A128A117208303EA7
:100328000A128A154F240A128A11C830831203133D
:10033800A8000A30A0000030A1000A30F200003006
:10034800F3003808F5003708F4000A128A15BB25AF
:100358000A128A11730883120313A3007208A200F9
:100368000A128A1546250A128A11831203132008D5
:10037800303E0A128A154F240A128A11C930831294
:100388000313A8000A30A0000030A1003808A30019
:100398003708A2000A128A1546250A128A11831202
:1003A80003132008303E0A128A154F240A128A11B4
:1003B800080083120313AD0031302A06031DE52916
:1003C800E629EB29C201C101AD01BC01BF01113011
:1003D800F6008530F7008030F8000A128A11CF2421
:1003E8000A128A110C30F6008630F700C030F80087
:1003F8000A128A11CF240A128A11C73083120313F2
:10040800A8003A300A128A154F240A128A1122309B
:10041800F6008530F700D030F8000A128A11CF2490
:100428000A128A112A30831203132D0603191D2A72
:100438001E2A542A23302D060319232A242A542A33
:100448002D0A0319282A292A542A0130BC07043006
:100458003C020318302A312A3F2A0A30F2004208A7
:100468000A128A153C240A128A11831203132D07D3
:10047800C200BF017C2A06303C020318442A452AE0
:100488007C2A0A30F20041080A128A153C240A1212
:100498008A11831203132D07C1000130BF007C2A83
:1004A8002A302D06031D592A5A2A6B2A3F08031D94
:1004B8005E2A5F2A622AC201BC017C2A3F03031D0F
:1004C800662A672A7C2AC1010230BC007C2A2330B4
:1004D8002D06031D702A712A7C2A0A128A152B24DC
:1004E8000A128A1183120313071512157030C300FC
:1004F8000130BE0708303E06031D832A842A8D2A50
:10050800BE013D080319892A8B2A01308C2A003044
:10051800BD003D080319912A922ABD2A3F08031DF0
:10052800962A972AAA2AC830A80020300A128A15C3
:100538004F240A128A11C93083120313A8002030ED
:100548000A128A154F240A128A112B2BC530A800CB
:1005580020300A128A154F240A128A11C6308312D3
:100568000313A80020300A128A154F240A128A1190
:100578002B2BC830A8000A30F2000030F3004208E4
:10058800AB00AC012B08F4002C08F5000A128A1104
:1005980026270A128A117208303E0A128A154F2439
:1005A8000A128A11C93083120313A8000A30A40062
:1005B8000030A5004208AB00AC012B08A6002C08AF
:1005C800A7000A128A1176240A128A1183120313C9
:1005D8002408303E0A128A154F240A128A11C5309F
:1005E80083120313A8000A30F2000030F300410818
:1005F800AB00AC012B08F4002C08F5000A128A1194
:1006080026270A128A117208303E0A128A154F24C8
:100618000A128A11C63083120313A8000A30A400F4
:100628000030A5004108AB00AC012B08A6002C083F
:10063800A7000A128A1176240A128A118312031358
:100648002408303E0A128A154F240A128A1108001B
:1006580083120313AD012D08803EA800FF300A1253
:100668008A154F240A128A11033083120313AC002F
:100678008A30AB005530AA00AA0B402BAB0B402B9D
:10068800AC0B402B013083120313AD0710302D0241
:10069800031C4F2B502B2F2BA230F6008530F70070
:1006A800C330F8000A128A11CF240A128A11513075
:1006B800F6008530F7009130F8000A128A11CF242D
:1006C8000A128A1183120313AE012E08D03EA80025
:1006D800FF300A128A154F240A128A110330831236
:1006E8000313AC008A30AB005530AA00AA0B7A2B52
:1006F800AB0B7A2BAC0B7A2B013083120313AE07AA
:1007080010302E02031C892B8A2B692B0A128A159A
:100718007A240A128A11333083120313AC00BB30D7
:10072800AB00DF30AA00AA0B972BAB0B972BAC0BB7
:10073800972B0A128A152B240A128A118312031383
:10074800AF012F08803EA800FF300A128A154F24F7
:100758000A128A11033083120313AC008A30AB00EB
:100768005530AA00AA0BB62BAB0BB62BAC0BB62B8D
:10077800013083120313AF0710302F02031CC52B5F
:10078800C62BA52B8830F6008530F700C230F8005C
:100798000A128A11CF240A128A11C430F600853051
:1007A800F7009430F8000A128A11CF240A128A112D
:1007B80083120313B0013008D03EA800FF300A129C
:1007C8008A154F240A128A11033083120313AC00CE
:1007D8008A30AB005530AA00AA0BF02BAB0BF02BDC
:1007E800AC0BF02B013083120313B007103030022A
:1007F800031CFF2B002CDF2B0A128A157A240A12FD
:100808008A114D3083120313AC001930AB004F30FE
:10081800AA00AA0B0D2CAB0B0D2CAC0B0D2C0A123D
:100828008A152B240A128A1183120313B101310885
:10083800803EA800FF300A128A154F240A128A1136
:10084800033083120313AC008A30AB005530AA0082
:10085800AA0B2C2CAB0B2C2CAC0B2C2C01308312A0
:100868000313B10710303102031C3B2C3C2C1B2C0A
:10087800D630F6008530F700C530F8000A128A1124
:10088800CF240A128A113230F6008530F7009130F1
:10089800F8000A128A11CF240A128A11B930F60018
:1008A8008530F700D230F8000A128A11CF240A12D4
:1008B8008A110A128A157A240A128A114D30831273
:1008C8000313AC001930AB004F30AA00AA0B6A2CF6
:1008D800AB0B6A2CAC0B6A2C0A128A152B240A1251
:1008E8008A110800F70183120313A71F7C2C7D2CA3
:1008F800842CA609A709A60A0319A70A0130F7003C
:10090800A51F872C882C8D2CA409A509A40A0319D6
:10091800A50A240825040319922C932CC02C013015
:10092800F6009F2C01300310A40DA50DFF3E031DFA
:10093800972C0130F607A51FA22CA32C962C25086E
:100948002702031DA92C24082602031CAC2CAD2C5D
:10095800B32C2408A6022508031CA703A70201300C
:100968000310A50CA40CFF3E031DB42C0130F602A5
:10097800031DBF2CC02CA32C77080319C42CC52C2D
:10098800CA2CA609A709A60A0319A70A2708A500B9
:100998002608A4000800F20178080A128A15102512
:1009A8000A128A11ED2CF201F20A7708FF00760884
:1009B80084000A128A11EE270A128A110A128A156D
:1009C80010250A128A110130F6070318F70A0030B9
:1009D800F707770883120313FF00760884000A12CA
:1009E8008A11EE270A128A11003A031DFC2CFD2CED
:1009F800D72C08000134103445346E346A346F340F
:100A08007934203459346F347534723420344D3489
:100A1800653461346C3421340034533445345434EF
:100A28002034543449344D344534203428344D343A
:100A38004D343A3453345334293400342A343A3454
:100A480043344C34453441345234203423343A341A
:100A580045344E34543445345234003445346D34BE
:100A68006234653464346434653464342034533413
:100A780079347334743465346D34003434342E343A
:100A8800533454344134523454342F34523445346A
:100A9800533455344D34453400344D34693463345B
:100AA80072346F34773461347634653420344F349B
:100AB800763465346E340034533445345434203439
:100AC800543445344D345034203428342734433496
:100AD800293400345034723465342D344834653444
:100AE8006134743469346E3467343A3400343334DE
:100AF8002E3443346F346E3476346534633474344E
:100B080069346F346E340034443465347634653473
:100B18006C346F347034653464342034423479343E
:100B2800003450346F3477346534723420343D34B3
:100B380020343934303430345734003450346F343E
:100B480077346534723469346E34673420344F3402
:100B58004E340034543469346D34653420344C34A4
:100B68006534663474343A34003449346E34743439
:100B7800653472346E3473346834693470340034D4
:100B88004B34413452345434483449344B3420348F
:100B98005334003435342E345034413455345334BE
:100BA8004534003445344D34453452345434583483
:100BB80045340034543449344D34453420345534A4
:100BC8005034003432342E344734723469346C343F
:100BD8006C34003431342E344D3469346334723417
:100BE8006F34003434342E345334743461347234F2
:100BF80074340034543449344D34453420343D344D
:100C0800003436342E34533454344F345034003492
:100C1800543449344D3445343A340034543445342A
:100C28004D3450343A3400340A128A1564240A12B6
:100C38008A1101300A128A159B240A128A1183121A
:100C48000313B60020304306031D2B2E2C2E802EB6
:100C58003603031D302E312E5C2E3030C3000A12AD
:100C68008A152B240A128A119530F6008530F70070
:100C7800C230F8000A128A11CF240A128A111F30D2
:100C880083120313B4007130B3001D30B200B20BED
:100C98004B2EB30B4B2EB40B4B2E522E0A128A1529
:100CA8002B240A128A11313083120313B500FF2E48
:100CB80002303606031D612E622E6C2E4030C300B2
:100CC8003130B5000A128A152B240A128A11FF2E18
:100CD80003303606031D712E722E772E5030C30056
:100CE8003130B500662E04303606031D7C2E7D2E6D
:100CF800FF2E6030C300662E70304306031D852E1C
:100D0800862EAC2E04303606031D8B2E8C2E9A2E82
:100D180042081E3EC2003C304202031C942E952E0F
:100D28009A2E0130C1074208C43EC200053036067B
:100D3800031D9F2EA02EA32E8030C300FF2E063049
:100D48003606031DA82EA92EFF2E9030C300FF2EB5
:100D580080304306031DB12EB22EFF2E0430360616
:100D6800031DB72EB82EFF2E121507157030C300BD
:100D7800FF2E0A128A112C230A128A110A128A15C6
:100D88002B240A128A11203083120313C3001E2F4A
:100D98000A128A15E3240A128A111E2F3508AA009E
:100DA80036080A128A11DD210A128A111E2F0A1228
:100DB8008A15F4260A128A111E2F3508AA00360849
:100DC8000A128A11DD210A128A111E2F3508AA007B
:100DD80036080A128A112D200A128A111E2F0A12A9
:100DE8008A1506240A128A111E2F121107111E2FA6
:100DF80012110711C22E831203134308103A031964
:100E0800BD2E303A0319CC2E103A0319D22E703A5F
:100E18000319E12E103A0319EA2E303A0319F32E7A
:100E2800103A0319DB2EF03A0319F92E103A031978
:100E3800FC2E1E2FFF3083120313B5001D2E0A123D
:100E48008A110C2883120313A101F31F2C2F2D2FB5
:100E5800342FF209F309F20A0319F30A0130A10049
:100E6800F51F372F382F3F2FF409F509F40A031916
:100E7800F50A0130A106A201A3017208730403193F
:100E8800462F472F7C2F0130A000532F013003102D
:100E9800F20DF30DFF3E031D4B2F0130A007F31F8A
:100EA800562F572F4A2F01300310A20DA30DFF3ED6
:100EB800031D582F73087502031D642F72087402EE
:100EC800031C672F682F6F2F7208F4027308031C26
:100ED800F503F502221401300310F30CF20CFF3E67
:100EE800031D702F0130A002031D7B2F7C2F572F6D
:100EF80021080319802F812F862FA209A309A20A8E
:100F08000319A30A2308F3002208F2000800C330DB
:100F1800F700CD30F600F60B8F2FF70B8F2FF2016D
:100F280003300A128A1510250A128A111B30F7009D
:100F38009E30F600F60B9E2FF70B9E2F0000F20155
:100F480003300A128A1510250A128A11A630F600F3
:100F5800F60BAC2F0000F20103300A128A15102597
:100F68000A128A11B72FB82F0000F20102300A12B4
:100F78008A1510250A128A11A630F600F60BC22F20
:100F88000000F20128300A128A1510250A128A1167
:100F9800A630F600F60BCE2F0000F20101300A123F
:100FA8008A1510250A128A110430F7003D30F60020
:100FB800F60BDC2FF70BDC2FE12FF2010C300A12B5
:100FC8008A1510250A128A11A630F600F60BEA2FA8
:100FD80000000800FF1BF82F83137F1883170008F1
:100FE800840A0319FF0A08007F087F398A00040869
:080FF800840A0319FF0A8200BC
:1017FA00FA308316031392008C1483120313121106
:10180A0008001E3083120313C200C1011215071506
:10181A007030C30008008316031388010911891068
:10182A000A128A118B270A128A15080083160313D3
:10183A000608073886000808F039880081138312E1
:10184A00031388150815881408140800F2010130DA
:10185A000A128A1510250A128A150430F7003D303B
:10186A00F600F60B362CF70B362C3B2C0800F4004E
:10187A00F301741C412C422C442C7208F307031008
:10188A00F20D0310F40C7408031D4C2C4D2C3E2C45
:10189A007308080083120313A900F20128080A1228
:1018AA008A1510250A128A15F201F20A8312031305
:1018BA0029080A128A1510250A128A1508000A121E
:1018CA008A1510240A128A150A128A151B240A126A
:1018DA008A150A128A15FD230A128A150B178B1705
:1018EA008316031307118710080083120313871442
:1018FA000330F4008A30F3005530F200F20B832CE7
:10190A00F30B832CF40B832C8A2C8312031387107A
:10191A000330F4008A30F3005530F200F20B932CB6
:10192A00F30B932CF40B932C9A2C0800F7000A1251
:10193A008A15FD250A128A15F8007708031DA62CB8
:10194A00A72CA92C7808BD2C780A0319AD2CAE2C2B
:10195A00B52C7B080319B22CB32CB52CFB01A72C90
:10196A00780A031DB92CBA2CBC2C0130FB00FF30BD
:10197A000800F601F701721CC32CC42CCA2C740887
:10198A00F6070318F70A7508F70701300310F40D74
:10199A00F50DFF3E031DCB2C01300310F30CF20CA6
:1019AA00FF3E031DD22C72087304031DDD2CDE2CAE
:1019BA00C02C7708F3007608F2000800EE30F60033
:1019CA008530F7008330F8000A128A11CF240A12F0
:1019DA008A15E630F6008530F700C330F8000A129F
:1019EA008A11CF240A128A157B30F6008530F70057
:1019FA009330F8000A128A11CF240A128A15F63097
:101A0A00F6008530F700D330F8000A128A11CF2485
:101A1A000A128A150800F5007218142D182D83125F
:101A2A00031309151B2D8312031309117508F039C5
:101A3A0088008914A630F300F30B212D00008312CD
:101A4A000313891075080F39F30003300310F30DDF
:101A5A00FF3E031D2B2D0310730D88008914A63039
:101A6A00F300F30B362D00008312031389101B3089
:101A7A00F4009E30F300F30B402DF40B402D0000D0
:101A8A000800831203132008210403194D2D4E2D3B
:101A9A007B2D0130A4005A2D01300310A00DA10D99
:101AAA00FF3E031D522D0130A407A11F5D2D5E2D9F
:101ABA00512D21082302031D642D20082202031C34
:101ACA00672D682D6E2D2008A2022108031CA3038E
:101ADA00A30201300310A10CA00CFF3E031D6F2DC1
:101AEA000130A402031D7A2D7B2D5E2D2308A1004F
:101AFA002208A0000800831203138C1C852D862D52
:101B0A00B42D0130F9070318FA0A0030FA07203019
:101B1A0079064E3003197A06031D942D952DB32D9F
:101B2A00F901FA01420803199B2D9C2D9E2D0130C3
:101B3A00C2024208031DA22DA32DAC2D4108031990
:101B4A00A72DA82DAC2D0130C1023C30C20040089F
:101B5A000319B02DB12DB32D0130C0028C107108BC
:101B6A008A00700E8300FE0E7E0E0900F601F70150
:101B7A00720873040319C22DC32DF82D0130F80021
:101B8A00CF2D01300310F20DF30DFF3E031DC72DBB
:101B9A000130F807F31FD22DD32DC62D01300310C3
:101BAA00F60DF70DFF3E031DD42D73087502031DB4
:101BBA00E02D72087402031CE32DE42DEB2D72084C
:101BCA00F4027308031CF503F502761401300310BE
:101BDA00F30CF20CFF3E031DEC2D0130F802031D3D
:101BEA00F72DF82DD32D7708F3007608F2000800B8
:101BFA008312031388110815881408146430F50039
:101C0A000030F600FF30F5070318F60AFF30F60732
:101C1A00750A031D142E760A031D142E152E072E7F
:101C2A008312031306181A2E1B2E222E0A128A1545
:101C3A007A240A128A150130F32E8618252E262EAA
:101C4A002D2E0A128A157A240A128A150230F32EC8
:101C5A000619302E312E382E0A128A157A240A12C3
:101C6A008A150330F32E8815081188140814643075
:101C7A00F5000030F600FF30F5070318F60AFF30CA
:101C8A00F6077608803AFF0080307F02031D4F2E48
:101C9A00013075020318522E532E402E831203135D
:101CAA000618582E592E602E0A128A157A240A12FC
:101CBA008A150430F32E8618632E642E6B2E0A12B0
:101CCA008A157A240A128A150530F32E06196E2E01
:101CDA006F2E762E0A128A157A240A128A1506306F
:101CEA00F32E88150815881008146430F5000030A2
:101CFA00F600FF30F5070318F60AFF30F6077608F4
:101D0A00803AFF0080307F02031D8D2E013075025C
:101D1A000318902E912E7E2E831203130618962EE8
:101D2A00972E9E2E0A128A157A240A128A150730CD
:101D3A00F32E8618A12EA22EA92E0A128A157A240B
:101D4A000A128A150830F32E0619AC2EAD2EB42EBF
:101D5A000A128A157A240A128A150930F32E88156E
:101D6A000815881408106430F5000030F600FF30BA
:101D7A00F5070318F60AFF30F6077608803AFF00DF
:101D8A0080307F02031DCB2E013075020318CE2E40
:101D9A00CF2EBC2E831203130618D42ED52EDC2E7A
:101DAA000A128A157A240A128A152A30F32E8618FC
:101DBA00DF2EE02EE72E0A128A157A240A128A15D5
:101DCA000030F32E0619EA2EEB2EF22E0A128A158D
:101DDA007A240A128A152330F32EFF300800FE30C7
:101DEA00F6008530F7008130F8000A128A11CF24F4
:101DFA000A128A15893083120313A8000A30F200E6
:101E0A000030F3004108AA00AB012A08F4002B08AD
:101E1A00F5000A128A1126270A128A157208303E1C
:101E2A000A128A154F240A128A158A30831203135A
:101E3A00A8000A30A4000030A5004108AA00AB019E
:101E4A002A08A6002B08A7000A128A1176240A1269
:101E5A008A15831203132408303E0A128A154F2466
:101E6A000A128A158B3083120313A8003A300A1219
:101E7A008A154F240A128A158C3083120313A8007C
:101E8A000A30F2000030F3004208AA00AB012A0827
:101E9A00F4002B08F5000A128A1126270A128A155D
:101EAA007208303E0A128A154F240A128A158D309A
:101EBA0083120313A8000A30A4000030A5004208C8
:101ECA00AA00AB012A08A6002B08A7000A128A1149
:101EDA0076240A128A15831203132408303E0A1242
:101EEA008A154F240A128A154230F6008530F70007
:101EFA00C130F8000A128A11CF240A128A15CE308C
:101F0A00F6008530F7009130F8000A128A11CF24C2
:101F1A000A128A150530F6008630F700D130F8002B
:101F2A000A128A11CF240A128A158312031341084E
:101F3A00031DA02FA12FFF2F4208031DA52FA62F97
:101F4A00FF2F0A128A152B240A128A1583120313E9
:101F5A0012110711DE30F6008530F700C430F800A0
:101F6A000A128A11CF240A128A150030F600853027
:101F7A00F7009030F8000A128A11CF240A128A1543
:101F8A008312031387144D3083120313AC001930E4
:101F9A00AB004F30AA00AA0BD02FAB0BD02FAC0B43
:101FAA00D02F8312031387104D3083120313AC0012
:101FBA001930AB004F30AA00AA0BE12FAB0BE12F6F
:101FCA00AC0BE12F1A3083120313AC005E30AB0066
:101FDA006D30AA00AA0BEF2FAB0BEF2FAC0BEF2F34
:101FEA00F62F0A128A152B240A128A152030831218
:061FFA000313C300080000
:02400E00FB3F76
:00000001FF
