:060000000A128A11F62F1E
:100D7C0001340A128A11CA260A128A118316031325
:100D8C00061286120613080083160313060807388A
:100D9C0086000808F0398800811383120313881524
:100DAC000815881408140800F2000A128A114A2740
:100DBC000A128A11F3007208031DE52EE62EE82EA6
:100DCC007308FC2E730A0319EC2EED2EF42E790801
:100DDC000319F12EF22EF42EF901E62E730A031DDF
:100DEC00F82EF92EFB2E0130F900FF3008000A1204
:100DFC008A11BF260A128A1101300A128A11DA26C8
:100E0C000A128A11F8007803031D0D2F0E2F122FD2
:100E1C00103083120313860602307806031D172F39
:100E2C00182F1C2F203083120313860603307806EC
:100E3C00031D212F222F262F4030831203138606E9
:100E4C005030F400C330F5000130F4020030031CC4
:100E5C00F503F50274087504031D352F362F2A2F60
:100E6C005030F600C330F7000130F6020030031C9E
:100E7C00F703F70276087704031D452F462F3A2F08
:100E8C00022F0A128A1100288312031388110815E5
:100E9C00881408146430F0000030F100FF30F007C3
:100EAC000318F10AFF30F107700A031D612F710A54
:100EBC00031D612F622F542F831203130618672F03
:100ECC00682F6A2F0130F52F86186D2F6E2F702F1B
:100EDC000230F52F0619732F742F762F0330F52F50
:100EEC0088150811881408146430F0000030F100E3
:100EFC00FF30F0070318F10AFF30F107700A031DE9
:100F0C008B2F710A031D8B2F8C2F7E2F83120313B3
:100F1C000618912F922F942F0430F52F8618972FA7
:100F2C00982F9A2F0530F52F06199D2F9E2FA02F45
:100F3C000630F52F88150815881008146430F00059
:100F4C000030F100FF30F0070318F10AFF30F10711
:100F5C00700A031DB52F710A031DB52FB62FA82FCC
:100F6C00831203130618BB2FBC2FBE2F0730F52F8F
:100F7C008618C12FC22FC42F0830F52F0619C72F82
:100F8C00C82FCA2F0930F52F88150815881408109A
:100F9C006430F0000030F100FF30F0070318F10A64
:100FAC00FF30F107700A031DDF2F710A031DDF2FBD
:100FBC00E02FD22F831203130618E52FE62FE82F0C
:100FCC002A30F52F8618EB2FEC2FEE2F0030F52F53
:100FDC000619F12FF22FF42F2330F52FFF300800D4
:100FEC000A128A11BE260A128A11F90083010A120A
:040FFC008A11FD2E2B
:02400E00FB3F76
:00000001FF
