:020000040000FA
:100000000A128A11FC2F00308A000408840A820731
:10001000003457346F3472346C34643400344834F0
:0A00200065346C346C346F34003426
:100E3E000A128A1125270A128A1108008316031333
:100E4E008801091189100A128A11A9270A128A111A
:100E5E000800F3007018342F382F8312031309156E
:100E6E003B2F831203130911730888008914A630CF
:100E7E00F100F10B402F00008312031389101B3079
:100E8E00F2009E30F100F10B4A2FF20B4A2F0000B8
:100E9E000800F600F00174080A128A1130270A12AF
:100EAE008A116B2FF001F00A760884000A128A115B
:100EBE0003200A128A110A128A1130270A128A1185
:100ECE000130F5007508F607760884000A128A11BB
:100EDE0003200A128A11003A031D762F772F592FFD
:100EEE0008000A128A111F270A128A118030F70091
:100EFE007708F40007300A128A1150270A128A1155
:100F0E00C030F7007708F40001300A128A1150271A
:100F1E000A128A119030F7007708F40001300A1295
:100F2E008A1150270A128A11D030F7007708F40080
:100F3E0001300A128A1150270A128A117D2F0A12C5
:100F4E008A110028C330F500CD30F400F40BAD2F1C
:100F5E00F50BAD2FF00133300A128A1130270A1229
:100F6E008A111B30F5009E30F400F40BBC2FF50BEC
:100F7E00BC2F0000F00133300A128A1130270A12FA
:100F8E008A11A630F400F40BCA2F0000F0013330A2
:100F9E000A128A1130270A128A11D52FD62F000075
:100FAE00F00130300A128A1130270A128A11A63047
:100FBE00F400F40BE02F0000F00101300A128A1148
:100FCE0030270A128A11A630F400F40BEC2F000021
:100FDE00F0010C300A128A1130270A128A11A6303B
:100FEE00F400F40BF82F0000080083010A128A1196
:020FFE00782F4A
:02400E00FB3F76
:00000001FF
