:100000000A128A11FC2F00308A000408840A820731
:1000100000343F3406345B344F3466346D347D3401
:0600200007347F346F3449
:100F70000630831603139F0085018801FF3083121A
:100F800003138500FF308800F301FF308312031341
:100F900085007308013E84000A128A1103200A1298
:100FA0008A11880005100D30F200AF30F100B63024
:100FB000F000F00BD92FF10BD92FF20BD92F000035
:100FC0008312031305140630F2001330F100AD3024
:100FD000F000F00BE92FF10BE92FF20BE92FF02FC6
:100FE0000130F3070A307302031CF72FF82FC52FC7
:100FF000C42F0A128A11002883010A128A11B82FFD
:02400E00323F3F
:00000001FF
