:060000000A128A11EE2F26
:100E8C0006345B344F3466346D347D3407347F3430
:100E9C006F340034F0007008831203178D00831632
:100EAC0003178C130C14831203170C0808007E080C
:100EBC008A007F0882000A128A115D270A128A11A1
:100ECC008000840A04087D0603190034FF0A031904
:100EDC00FE0A612FF1007108831203178D00700850
:100EEC008C00831603178C130C158B1355308D0047
:100EFC00AA308D008C148B178C18852F862F822F7F
:100F0C000C1108008316031388018501FF3083122E
:100F1C0003138800FF308500F6017608F000760890
:100F2C000A128A1170270A128A110D30F400AF30A0
:100F3C00F300B630F200F20BA12FF30BA12FF40B40
:100F4C00A12F00000130F6070A307602031CAF2FE8
:100F5C00B02F932FF60176080A128A1150270A1225
:100F6C008A11F500FF308312031385007508203EAB
:100F7C00840083130008880005100D30F400AF3096
:100F8C00F300B630F200F20BC92FF30BC92FF40BA0
:100F9C00C92F0000831203130514FF30880003309F
:100FAC00F4008A30F3005530F200F20BDB2FF30B18
:100FBC00DB2FF40BDB2FE22F0130F6070A30760221
:100FCC00031CE92FEA2FB12FB02F0A128A11002827
:100FDC0083132A30FD000730FE004630FF0020301E
:100FEC0084000A128A1161270A128A1183010A12DB
:040FFC008A11882F9F
:02400E007A3FF7
:00000001FF
